{
  "_format": "hh-sol-artifact-1",
  "contractName": "Champion",
  "sourceName": "contracts/Champion.sol",
  "abi": [
    {
      "inputs": [],
      "stateMutability": "nonpayable",
      "type": "constructor"
    },
    {
      "anonymous": false,
      "inputs": [
        {
          "indexed": true,
          "internalType": "uint256",
          "name": "championId",
          "type": "uint256"
        }
      ],
      "name": "ChampionReborn",
      "type": "event"
    },
    {
      "anonymous": false,
      "inputs": [
        {
          "indexed": true,
          "internalType": "uint256",
          "name": "championId",
          "type": "uint256"
        }
      ],
      "name": "NewChampion",
      "type": "event"
    },
    {
      "anonymous": false,
      "inputs": [
        {
          "indexed": true,
          "internalType": "bytes32",
          "name": "role",
          "type": "bytes32"
        },
        {
          "indexed": true,
          "internalType": "bytes32",
          "name": "previousAdminRole",
          "type": "bytes32"
        },
        {
          "indexed": true,
          "internalType": "bytes32",
          "name": "newAdminRole",
          "type": "bytes32"
        }
      ],
      "name": "RoleAdminChanged",
      "type": "event"
    },
    {
      "anonymous": false,
      "inputs": [
        {
          "indexed": true,
          "internalType": "bytes32",
          "name": "role",
          "type": "bytes32"
        },
        {
          "indexed": true,
          "internalType": "address",
          "name": "account",
          "type": "address"
        },
        {
          "indexed": true,
          "internalType": "address",
          "name": "sender",
          "type": "address"
        }
      ],
      "name": "RoleGranted",
      "type": "event"
    },
    {
      "anonymous": false,
      "inputs": [
        {
          "indexed": true,
          "internalType": "bytes32",
          "name": "role",
          "type": "bytes32"
        },
        {
          "indexed": true,
          "internalType": "address",
          "name": "account",
          "type": "address"
        },
        {
          "indexed": true,
          "internalType": "address",
          "name": "sender",
          "type": "address"
        }
      ],
      "name": "RoleRevoked",
      "type": "event"
    },
    {
      "inputs": [],
      "name": "DEFAULT_ADMIN_ROLE",
      "outputs": [
        {
          "internalType": "bytes32",
          "name": "",
          "type": "bytes32"
        }
      ],
      "stateMutability": "view",
      "type": "function"
    },
    {
      "inputs": [],
      "name": "REBORN_ROLE",
      "outputs": [
        {
          "internalType": "bytes32",
          "name": "",
          "type": "bytes32"
        }
      ],
      "stateMutability": "view",
      "type": "function"
    },
    {
      "inputs": [
        {
          "internalType": "uint256",
          "name": "championId",
          "type": "uint256"
        },
        {
          "internalType": "uint256",
          "name": "fire",
          "type": "uint256"
        },
        {
          "internalType": "uint256",
          "name": "earth",
          "type": "uint256"
        },
        {
          "internalType": "uint256",
          "name": "water",
          "type": "uint256"
        },
        {
          "internalType": "uint256",
          "name": "light",
          "type": "uint256"
        },
        {
          "internalType": "uint256",
          "name": "class",
          "type": "uint256"
        }
      ],
      "name": "accomplishReborn",
      "outputs": [],
      "stateMutability": "nonpayable",
      "type": "function"
    },
    {
      "inputs": [
        {
          "internalType": "bytes32",
          "name": "role",
          "type": "bytes32"
        }
      ],
      "name": "getRoleAdmin",
      "outputs": [
        {
          "internalType": "bytes32",
          "name": "",
          "type": "bytes32"
        }
      ],
      "stateMutability": "view",
      "type": "function"
    },
    {
      "inputs": [
        {
          "internalType": "bytes32",
          "name": "role",
          "type": "bytes32"
        },
        {
          "internalType": "address",
          "name": "account",
          "type": "address"
        }
      ],
      "name": "grantRole",
      "outputs": [],
      "stateMutability": "nonpayable",
      "type": "function"
    },
    {
      "inputs": [
        {
          "internalType": "bytes32",
          "name": "role",
          "type": "bytes32"
        },
        {
          "internalType": "address",
          "name": "account",
          "type": "address"
        }
      ],
      "name": "hasRole",
      "outputs": [
        {
          "internalType": "bool",
          "name": "",
          "type": "bool"
        }
      ],
      "stateMutability": "view",
      "type": "function"
    },
    {
      "inputs": [
        {
          "internalType": "address",
          "name": "nft",
          "type": "address"
        },
        {
          "internalType": "uint256",
          "name": "tokenId",
          "type": "uint256"
        }
      ],
      "name": "reborn",
      "outputs": [
        {
          "internalType": "uint256",
          "name": "",
          "type": "uint256"
        }
      ],
      "stateMutability": "nonpayable",
      "type": "function"
    },
    {
      "inputs": [
        {
          "internalType": "bytes32",
          "name": "role",
          "type": "bytes32"
        },
        {
          "internalType": "address",
          "name": "account",
          "type": "address"
        }
      ],
      "name": "renounceRole",
      "outputs": [],
      "stateMutability": "nonpayable",
      "type": "function"
    },
    {
      "inputs": [
        {
          "internalType": "bytes32",
          "name": "role",
          "type": "bytes32"
        },
        {
          "internalType": "address",
          "name": "account",
          "type": "address"
        }
      ],
      "name": "revokeRole",
      "outputs": [],
      "stateMutability": "nonpayable",
      "type": "function"
    },
    {
      "inputs": [
        {
          "internalType": "bytes4",
          "name": "interfaceId",
          "type": "bytes4"
        }
      ],
      "name": "supportsInterface",
      "outputs": [
        {
          "internalType": "bool",
          "name": "",
          "type": "bool"
        }
      ],
      "stateMutability": "view",
      "type": "function"
    }
  ],
  "bytecode": "0x608060405234801561001057600080fd5b5061001c600033610021565b6100cd565b61002b828261002f565b5050565b6000828152602081815260408083206001600160a01b038516845290915290205460ff1661002b576000828152602081815260408083206001600160a01b03851684529091529020805460ff191660011790556100893390565b6001600160a01b0316816001600160a01b0316837f2f8788117e7eff1d82e926ec794901d17c78024a50270940304540a733656f0d60405160405180910390a45050565b610ab9806100dc6000396000f3fe608060405234801561001057600080fd5b506004361061009e5760003560e01c806391d148541161006657806391d1485414610137578063a217fddf1461014a578063a433af6f14610152578063b2a2db2114610165578063d547741f1461018c57600080fd5b806301ffc9a7146100a3578063248a9ca3146100cb5780632f2ff15d146100fc57806336568abe14610111578063474cadb614610124575b600080fd5b6100b66100b1366004610801565b61019f565b60405190151581526020015b60405180910390f35b6100ee6100d936600461082b565b60009081526020819052604090206001015490565b6040519081526020016100c2565b61010f61010a366004610860565b6101d6565b005b61010f61011f366004610860565b610200565b61010f61013236600461088c565b610283565b6100b6610145366004610860565b610370565b6100ee600081565b6100ee6101603660046108cf565b610399565b6100ee7fa1057ffd306c21d02c00402c1369f59e0b9af1f26cb56cd57436bd2b1f78e11681565b61010f61019a366004610860565b6104df565b60006001600160e01b03198216637965db0b60e01b14806101d057506301ffc9a760e01b6001600160e01b03198316145b92915050565b6000828152602081905260409020600101546101f181610504565b6101fb8383610511565b505050565b6001600160a01b03811633146102755760405162461bcd60e51b815260206004820152602f60248201527f416363657373436f6e74726f6c3a2063616e206f6e6c792072656e6f756e636560448201526e103937b632b9903337b91039b2b63360891b60648201526084015b60405180910390fd5b61027f8282610595565b5050565b7fa1057ffd306c21d02c00402c1369f59e0b9af1f26cb56cd57436bd2b1f78e1166102ad81610504565b6102b86064876108f9565b6000888152600160205260409020556102d26064866108f9565b600088815260016020819052604090912001556102f06064856108f9565b60008881526001602052604090206002015561030d6064846108f9565b60008881526001602052604090206003015561032a6002836108f9565b60008881526001602052604080822060040192909255905188917fa6a4d76b2a9f99c1d49a0fbeec8ab35db8e7288a9b33eed4282b4e3da7013dac91a250505050505050565b6000918252602082815260408084206001600160a01b0393909316845291905290205460ff1690565b60007fa1057ffd306c21d02c00402c1369f59e0b9af1f26cb56cd57436bd2b1f78e1166103c581610504565b604080516bffffffffffffffffffffffff19606087901b1660208083019190915260348083018790528351808403909101815260548301808552815191830191909120600081815260019384905285902061013485019095528454825291840154607484015260028401546094840152600384015460b4840152600484015460d4840152600584015460f484018190526006909401546001600160a01b031661011490930192909252911561047c575091506104d8565b6000828152600160205260408082206006810180546001600160a01b0319166001600160a01b038b161790556005018790555183917f5cab2ca2af5b6e61b2422e37ecde4001dfe380bc1792803f88668391869b8a1a91a25091505b5092915050565b6000828152602081905260409020600101546104fa81610504565b6101fb8383610595565b61050e81336105fa565b50565b61051b8282610370565b61027f576000828152602081815260408083206001600160a01b03851684529091529020805460ff191660011790556105513390565b6001600160a01b0316816001600160a01b0316837f2f8788117e7eff1d82e926ec794901d17c78024a50270940304540a733656f0d60405160405180910390a45050565b61059f8282610370565b1561027f576000828152602081815260408083206001600160a01b0385168085529252808320805460ff1916905551339285917ff6391f5c32d9c69d2a47ea670b442974b53935d1edc7fd64eb21e047a839171b9190a45050565b6106048282610370565b61027f5761061c816001600160a01b0316601461065e565b61062783602061065e565b60405160200161063892919061094b565b60408051601f198184030181529082905262461bcd60e51b825261026c916004016109c0565b6060600061066d836002610a09565b610678906002610a28565b67ffffffffffffffff81111561069057610690610a40565b6040519080825280601f01601f1916602001820160405280156106ba576020820181803683370190505b509050600360fc1b816000815181106106d5576106d5610a56565b60200101906001600160f81b031916908160001a905350600f60fb1b8160018151811061070457610704610a56565b60200101906001600160f81b031916908160001a9053506000610728846002610a09565b610733906001610a28565b90505b60018111156107ab576f181899199a1a9b1b9c1cb0b131b232b360811b85600f166010811061076757610767610a56565b1a60f81b82828151811061077d5761077d610a56565b60200101906001600160f81b031916908160001a90535060049490941c936107a481610a6c565b9050610736565b5083156107fa5760405162461bcd60e51b815260206004820181905260248201527f537472696e67733a20686578206c656e67746820696e73756666696369656e74604482015260640161026c565b9392505050565b60006020828403121561081357600080fd5b81356001600160e01b0319811681146107fa57600080fd5b60006020828403121561083d57600080fd5b5035919050565b80356001600160a01b038116811461085b57600080fd5b919050565b6000806040838503121561087357600080fd5b8235915061088360208401610844565b90509250929050565b60008060008060008060c087890312156108a557600080fd5b505084359660208601359650604086013595606081013595506080810135945060a0013592509050565b600080604083850312156108e257600080fd5b6108eb83610844565b946020939093013593505050565b60008261091657634e487b7160e01b600052601260045260246000fd5b500690565b60005b8381101561093657818101518382015260200161091e565b83811115610945576000848401525b50505050565b7f416363657373436f6e74726f6c3a206163636f756e742000000000000000000081526000835161098381601785016020880161091b565b7001034b99036b4b9b9b4b733903937b6329607d1b60179184019182015283516109b481602884016020880161091b565b01602801949350505050565b60208152600082518060208401526109df81604085016020870161091b565b601f01601f19169190910160400192915050565b634e487b7160e01b600052601160045260246000fd5b6000816000190483118215151615610a2357610a236109f3565b500290565b60008219821115610a3b57610a3b6109f3565b500190565b634e487b7160e01b600052604160045260246000fd5b634e487b7160e01b600052603260045260246000fd5b600081610a7b57610a7b6109f3565b50600019019056fea264697066735822122036f9bf4dfb3c616556589ba2904f67edae3a7c86ed03a5b2bc36576410cc759e64736f6c63430008090033",
  "linkReferences": {},
  "deployedLinkReferences": {}
}