{
  "_format": "hh-sol-artifact-1",
  "contractName": "Champion",
  "sourceName": "contracts/Champion.sol",
  "abi": [
    {
      "inputs": [
        {
          "internalType": "string",
          "name": "baseUri",
          "type": "string"
        }
      ],
      "stateMutability": "nonpayable",
      "type": "constructor"
    },
    {
      "anonymous": false,
      "inputs": [
        {
          "indexed": true,
          "internalType": "address",
          "name": "owner",
          "type": "address"
        },
        {
          "indexed": true,
          "internalType": "address",
          "name": "approved",
          "type": "address"
        },
        {
          "indexed": true,
          "internalType": "uint256",
          "name": "tokenId",
          "type": "uint256"
        }
      ],
      "name": "Approval",
      "type": "event"
    },
    {
      "anonymous": false,
      "inputs": [
        {
          "indexed": true,
          "internalType": "address",
          "name": "owner",
          "type": "address"
        },
        {
          "indexed": true,
          "internalType": "address",
          "name": "operator",
          "type": "address"
        },
        {
          "indexed": false,
          "internalType": "bool",
          "name": "approved",
          "type": "bool"
        }
      ],
      "name": "ApprovalForAll",
      "type": "event"
    },
    {
      "anonymous": false,
      "inputs": [
        {
          "indexed": true,
          "internalType": "uint256",
          "name": "championId",
          "type": "uint256"
        }
      ],
      "name": "ChampionReborn",
      "type": "event"
    },
    {
      "anonymous": false,
      "inputs": [
        {
          "indexed": true,
          "internalType": "uint256",
          "name": "championId",
          "type": "uint256"
        }
      ],
      "name": "NewChampion",
      "type": "event"
    },
    {
      "anonymous": false,
      "inputs": [
        {
          "indexed": false,
          "internalType": "address",
          "name": "account",
          "type": "address"
        }
      ],
      "name": "Paused",
      "type": "event"
    },
    {
      "anonymous": false,
      "inputs": [
        {
          "indexed": true,
          "internalType": "bytes32",
          "name": "role",
          "type": "bytes32"
        },
        {
          "indexed": true,
          "internalType": "bytes32",
          "name": "previousAdminRole",
          "type": "bytes32"
        },
        {
          "indexed": true,
          "internalType": "bytes32",
          "name": "newAdminRole",
          "type": "bytes32"
        }
      ],
      "name": "RoleAdminChanged",
      "type": "event"
    },
    {
      "anonymous": false,
      "inputs": [
        {
          "indexed": true,
          "internalType": "bytes32",
          "name": "role",
          "type": "bytes32"
        },
        {
          "indexed": true,
          "internalType": "address",
          "name": "account",
          "type": "address"
        },
        {
          "indexed": true,
          "internalType": "address",
          "name": "sender",
          "type": "address"
        }
      ],
      "name": "RoleGranted",
      "type": "event"
    },
    {
      "anonymous": false,
      "inputs": [
        {
          "indexed": true,
          "internalType": "bytes32",
          "name": "role",
          "type": "bytes32"
        },
        {
          "indexed": true,
          "internalType": "address",
          "name": "account",
          "type": "address"
        },
        {
          "indexed": true,
          "internalType": "address",
          "name": "sender",
          "type": "address"
        }
      ],
      "name": "RoleRevoked",
      "type": "event"
    },
    {
      "anonymous": false,
      "inputs": [
        {
          "indexed": true,
          "internalType": "address",
          "name": "from",
          "type": "address"
        },
        {
          "indexed": true,
          "internalType": "address",
          "name": "to",
          "type": "address"
        },
        {
          "indexed": true,
          "internalType": "uint256",
          "name": "tokenId",
          "type": "uint256"
        }
      ],
      "name": "Transfer",
      "type": "event"
    },
    {
      "anonymous": false,
      "inputs": [
        {
          "indexed": false,
          "internalType": "address",
          "name": "account",
          "type": "address"
        }
      ],
      "name": "Unpaused",
      "type": "event"
    },
    {
      "inputs": [],
      "name": "DEFAULT_ADMIN_ROLE",
      "outputs": [
        {
          "internalType": "bytes32",
          "name": "",
          "type": "bytes32"
        }
      ],
      "stateMutability": "view",
      "type": "function"
    },
    {
      "inputs": [],
      "name": "REBORN_ROLE",
      "outputs": [
        {
          "internalType": "bytes32",
          "name": "",
          "type": "bytes32"
        }
      ],
      "stateMutability": "view",
      "type": "function"
    },
    {
      "inputs": [
        {
          "internalType": "uint256",
          "name": "championId",
          "type": "uint256"
        },
        {
          "internalType": "uint256",
          "name": "fire",
          "type": "uint256"
        },
        {
          "internalType": "uint256",
          "name": "earth",
          "type": "uint256"
        },
        {
          "internalType": "uint256",
          "name": "water",
          "type": "uint256"
        },
        {
          "internalType": "uint256",
          "name": "light",
          "type": "uint256"
        },
        {
          "internalType": "uint256",
          "name": "class",
          "type": "uint256"
        }
      ],
      "name": "accomplishReborn",
      "outputs": [],
      "stateMutability": "nonpayable",
      "type": "function"
    },
    {
      "inputs": [
        {
          "internalType": "address",
          "name": "to",
          "type": "address"
        },
        {
          "internalType": "uint256",
          "name": "tokenId",
          "type": "uint256"
        }
      ],
      "name": "approve",
      "outputs": [],
      "stateMutability": "nonpayable",
      "type": "function"
    },
    {
      "inputs": [
        {
          "internalType": "address",
          "name": "owner",
          "type": "address"
        }
      ],
      "name": "balanceOf",
      "outputs": [
        {
          "internalType": "uint256",
          "name": "",
          "type": "uint256"
        }
      ],
      "stateMutability": "view",
      "type": "function"
    },
    {
      "inputs": [
        {
          "internalType": "uint256",
          "name": "tokenId",
          "type": "uint256"
        }
      ],
      "name": "getApproved",
      "outputs": [
        {
          "internalType": "address",
          "name": "",
          "type": "address"
        }
      ],
      "stateMutability": "view",
      "type": "function"
    },
    {
      "inputs": [
        {
          "internalType": "bytes32",
          "name": "role",
          "type": "bytes32"
        }
      ],
      "name": "getRoleAdmin",
      "outputs": [
        {
          "internalType": "bytes32",
          "name": "",
          "type": "bytes32"
        }
      ],
      "stateMutability": "view",
      "type": "function"
    },
    {
      "inputs": [
        {
          "internalType": "bytes32",
          "name": "role",
          "type": "bytes32"
        },
        {
          "internalType": "address",
          "name": "account",
          "type": "address"
        }
      ],
      "name": "grantRole",
      "outputs": [],
      "stateMutability": "nonpayable",
      "type": "function"
    },
    {
      "inputs": [
        {
          "internalType": "bytes32",
          "name": "role",
          "type": "bytes32"
        },
        {
          "internalType": "address",
          "name": "account",
          "type": "address"
        }
      ],
      "name": "hasRole",
      "outputs": [
        {
          "internalType": "bool",
          "name": "",
          "type": "bool"
        }
      ],
      "stateMutability": "view",
      "type": "function"
    },
    {
      "inputs": [
        {
          "internalType": "address",
          "name": "owner",
          "type": "address"
        },
        {
          "internalType": "address",
          "name": "operator",
          "type": "address"
        }
      ],
      "name": "isApprovedForAll",
      "outputs": [
        {
          "internalType": "bool",
          "name": "",
          "type": "bool"
        }
      ],
      "stateMutability": "view",
      "type": "function"
    },
    {
      "inputs": [],
      "name": "name",
      "outputs": [
        {
          "internalType": "string",
          "name": "",
          "type": "string"
        }
      ],
      "stateMutability": "view",
      "type": "function"
    },
    {
      "inputs": [
        {
          "internalType": "uint256",
          "name": "tokenId",
          "type": "uint256"
        }
      ],
      "name": "ownerOf",
      "outputs": [
        {
          "internalType": "address",
          "name": "",
          "type": "address"
        }
      ],
      "stateMutability": "view",
      "type": "function"
    },
    {
      "inputs": [],
      "name": "pause",
      "outputs": [],
      "stateMutability": "nonpayable",
      "type": "function"
    },
    {
      "inputs": [],
      "name": "paused",
      "outputs": [
        {
          "internalType": "bool",
          "name": "",
          "type": "bool"
        }
      ],
      "stateMutability": "view",
      "type": "function"
    },
    {
      "inputs": [
        {
          "internalType": "address",
          "name": "nft",
          "type": "address"
        },
        {
          "internalType": "uint256",
          "name": "tokenId",
          "type": "uint256"
        }
      ],
      "name": "reborn",
      "outputs": [
        {
          "internalType": "uint256",
          "name": "",
          "type": "uint256"
        }
      ],
      "stateMutability": "nonpayable",
      "type": "function"
    },
    {
      "inputs": [
        {
          "internalType": "bytes32",
          "name": "role",
          "type": "bytes32"
        },
        {
          "internalType": "address",
          "name": "account",
          "type": "address"
        }
      ],
      "name": "renounceRole",
      "outputs": [],
      "stateMutability": "nonpayable",
      "type": "function"
    },
    {
      "inputs": [
        {
          "internalType": "bytes32",
          "name": "role",
          "type": "bytes32"
        },
        {
          "internalType": "address",
          "name": "account",
          "type": "address"
        }
      ],
      "name": "revokeRole",
      "outputs": [],
      "stateMutability": "nonpayable",
      "type": "function"
    },
    {
      "inputs": [
        {
          "internalType": "address",
          "name": "from",
          "type": "address"
        },
        {
          "internalType": "address",
          "name": "to",
          "type": "address"
        },
        {
          "internalType": "uint256",
          "name": "tokenId",
          "type": "uint256"
        }
      ],
      "name": "safeTransferFrom",
      "outputs": [],
      "stateMutability": "nonpayable",
      "type": "function"
    },
    {
      "inputs": [
        {
          "internalType": "address",
          "name": "from",
          "type": "address"
        },
        {
          "internalType": "address",
          "name": "to",
          "type": "address"
        },
        {
          "internalType": "uint256",
          "name": "tokenId",
          "type": "uint256"
        },
        {
          "internalType": "bytes",
          "name": "data",
          "type": "bytes"
        }
      ],
      "name": "safeTransferFrom",
      "outputs": [],
      "stateMutability": "nonpayable",
      "type": "function"
    },
    {
      "inputs": [
        {
          "internalType": "address",
          "name": "operator",
          "type": "address"
        },
        {
          "internalType": "bool",
          "name": "approved",
          "type": "bool"
        }
      ],
      "name": "setApprovalForAll",
      "outputs": [],
      "stateMutability": "nonpayable",
      "type": "function"
    },
    {
      "inputs": [
        {
          "internalType": "string",
          "name": "newBaseURI",
          "type": "string"
        }
      ],
      "name": "setBaseURI",
      "outputs": [],
      "stateMutability": "nonpayable",
      "type": "function"
    },
    {
      "inputs": [
        {
          "internalType": "bytes4",
          "name": "interfaceId",
          "type": "bytes4"
        }
      ],
      "name": "supportsInterface",
      "outputs": [
        {
          "internalType": "bool",
          "name": "",
          "type": "bool"
        }
      ],
      "stateMutability": "view",
      "type": "function"
    },
    {
      "inputs": [],
      "name": "symbol",
      "outputs": [
        {
          "internalType": "string",
          "name": "",
          "type": "string"
        }
      ],
      "stateMutability": "view",
      "type": "function"
    },
    {
      "inputs": [
        {
          "internalType": "uint256",
          "name": "tokenId",
          "type": "uint256"
        }
      ],
      "name": "tokenURI",
      "outputs": [
        {
          "internalType": "string",
          "name": "",
          "type": "string"
        }
      ],
      "stateMutability": "view",
      "type": "function"
    },
    {
      "inputs": [
        {
          "internalType": "address",
          "name": "from",
          "type": "address"
        },
        {
          "internalType": "address",
          "name": "to",
          "type": "address"
        },
        {
          "internalType": "uint256",
          "name": "tokenId",
          "type": "uint256"
        }
      ],
      "name": "transferFrom",
      "outputs": [],
      "stateMutability": "nonpayable",
      "type": "function"
    },
    {
      "inputs": [],
      "name": "unpause",
      "outputs": [],
      "stateMutability": "nonpayable",
      "type": "function"
    }
  ],
  "bytecode": "0x60806040523480156200001157600080fd5b506040516200224538038062002245833981016040819052620000349162000244565b604080518082018252600e81526d2932b137b93721b430b6b834b7b760911b60208083019182528351808501909452600584526404348414d560dc1b908401528151919291620000879160009162000188565b5080516200009d90600190602084019062000188565b50506006805460ff19169055508051620000bf90600890602084019062000188565b50620000cd600033620000d4565b506200035d565b620000e08282620000e4565b5050565b60008281526007602090815260408083206001600160a01b038516845290915290205460ff16620000e05760008281526007602090815260408083206001600160a01b03851684529091529020805460ff19166001179055620001443390565b6001600160a01b0316816001600160a01b0316837f2f8788117e7eff1d82e926ec794901d17c78024a50270940304540a733656f0d60405160405180910390a45050565b828054620001969062000320565b90600052602060002090601f016020900481019282620001ba576000855562000205565b82601f10620001d557805160ff191683800117855562000205565b8280016001018555821562000205579182015b8281111562000205578251825591602001919060010190620001e8565b506200021392915062000217565b5090565b5b8082111562000213576000815560010162000218565b634e487b7160e01b600052604160045260246000fd5b600060208083850312156200025857600080fd5b82516001600160401b03808211156200027057600080fd5b818501915085601f8301126200028557600080fd5b8151818111156200029a576200029a6200022e565b604051601f8201601f19908116603f01168101908382118183101715620002c557620002c56200022e565b816040528281528886848701011115620002de57600080fd5b600093505b82841015620003025784840186015181850187015292850192620002e3565b82841115620003145760008684830101525b98975050505050505050565b600181811c908216806200033557607f821691505b602082108114156200035757634e487b7160e01b600052602260045260246000fd5b50919050565b611ed8806200036d6000396000f3fe608060405234801561001057600080fd5b506004361061018e5760003560e01c80636352211e116100de578063a22cb46511610097578063b88d4fde11610071578063b88d4fde14610364578063c87b56dd14610377578063d547741f1461038a578063e985e9c51461039d57600080fd5b8063a22cb46514610317578063a433af6f1461032a578063b2a2db211461033d57600080fd5b80636352211e146102c657806370a08231146102d95780638456cb59146102ec57806391d14854146102f457806395d89b4114610307578063a217fddf1461030f57600080fd5b80632f2ff15d1161014b57806342842e0e1161012557806342842e0e14610282578063474cadb61461029557806355f804b3146102a85780635c975abb146102bb57600080fd5b80632f2ff15d1461025457806336568abe146102675780633f4ba83a1461027a57600080fd5b806301ffc9a71461019357806306fdde03146101bb578063081812fc146101d0578063095ea7b3146101fb57806323b872dd14610210578063248a9ca314610223575b600080fd5b6101a66101a136600461187b565b6103d9565b60405190151581526020015b60405180910390f35b6101c36103ea565b6040516101b291906118f0565b6101e36101de366004611903565b61047c565b6040516001600160a01b0390911681526020016101b2565b61020e610209366004611938565b6104a3565b005b61020e61021e366004611962565b6105be565b610246610231366004611903565b60009081526007602052604090206001015490565b6040519081526020016101b2565b61020e61026236600461199e565b6105ef565b61020e61027536600461199e565b610614565b61020e610692565b61020e610290366004611962565b6106a8565b61020e6102a33660046119ca565b6106c3565b61020e6102b6366004611a99565b6107af565b60065460ff166101a6565b6101e36102d4366004611903565b6107cd565b6102466102e7366004611ae2565b61082d565b61020e6108b3565b6101a661030236600461199e565b6108c6565b6101c36108f1565b610246600081565b61020e610325366004611afd565b610900565b610246610338366004611938565b61090b565b6102467fa1057ffd306c21d02c00402c1369f59e0b9af1f26cb56cd57436bd2b1f78e11681565b61020e610372366004611b39565b610a60565b6101c3610385366004611903565b610a98565b61020e61039836600461199e565b610aff565b6101a66103ab366004611bb5565b6001600160a01b03918216600090815260056020908152604080832093909416825291909152205460ff1690565b60006103e482610b24565b92915050565b6060600080546103f990611bdf565b80601f016020809104026020016040519081016040528092919081815260200182805461042590611bdf565b80156104725780601f1061044757610100808354040283529160200191610472565b820191906000526020600020905b81548152906001019060200180831161045557829003601f168201915b5050505050905090565b600061048782610b49565b506000908152600460205260409020546001600160a01b031690565b60006104ae826107cd565b9050806001600160a01b0316836001600160a01b031614156105215760405162461bcd60e51b815260206004820152602160248201527f4552433732313a20617070726f76616c20746f2063757272656e74206f776e656044820152603960f91b60648201526084015b60405180910390fd5b336001600160a01b038216148061053d575061053d81336103ab565b6105af5760405162461bcd60e51b815260206004820152603e60248201527f4552433732313a20617070726f76652063616c6c6572206973206e6f7420746f60448201527f6b656e206f776e6572206e6f7220617070726f76656420666f7220616c6c00006064820152608401610518565b6105b98383610ba8565b505050565b6105c83382610c16565b6105e45760405162461bcd60e51b815260040161051890611c1a565b6105b9838383610c95565b60008281526007602052604090206001015461060a81610e3c565b6105b98383610e46565b6001600160a01b03811633146106845760405162461bcd60e51b815260206004820152602f60248201527f416363657373436f6e74726f6c3a2063616e206f6e6c792072656e6f756e636560448201526e103937b632b9903337b91039b2b63360891b6064820152608401610518565b61068e8282610ecc565b5050565b600061069d81610e3c565b6106a5610f33565b50565b6105b983838360405180602001604052806000815250610a60565b7fa1057ffd306c21d02c00402c1369f59e0b9af1f26cb56cd57436bd2b1f78e1166106ed81610e3c565b6106f8606487611c7e565b600088815260096020526040902055610712606486611c7e565b60008881526009602052604090206001015561072f606485611c7e565b60008881526009602052604090206002015561074c606484611c7e565b600088815260096020526040902060030155610769600283611c7e565b60008881526009602052604080822060040192909255905188917fa6a4d76b2a9f99c1d49a0fbeec8ab35db8e7288a9b33eed4282b4e3da7013dac91a250505050505050565b60006107ba81610e3c565b81516105b99060089060208501906117cc565b6000818152600260205260408120546001600160a01b0316806103e45760405162461bcd60e51b8152602060048201526018602482015277115490cdcc8c4e881a5b9d985b1a59081d1bdad95b88125160421b6044820152606401610518565b60006001600160a01b0382166108975760405162461bcd60e51b815260206004820152602960248201527f4552433732313a2061646472657373207a65726f206973206e6f7420612076616044820152683634b21037bbb732b960b91b6064820152608401610518565b506001600160a01b031660009081526003602052604090205490565b60006108be81610e3c565b6106a5610f85565b60009182526007602090815260408084206001600160a01b0393909316845291905290205460ff1690565b6060600180546103f990611bdf565b61068e338383610fc2565b60007fa1057ffd306c21d02c00402c1369f59e0b9af1f26cb56cd57436bd2b1f78e11661093781610e3c565b604080516bffffffffffffffffffffffff19606087901b166020808301919091526034808301879052835180840390910181526054830180855281519183019190912060008181526009909352918490206101348401909452835481526001840154607484015260028401546094840152600384015460b4840152600484015460d4840152600584015460f484018190526006909401546001600160a01b03166101149093019290925291156109ef57509150610a59565b60008281526009602052604090206006810180546001600160a01b0319166001600160a01b038916179055600501859055610a2a3383611091565b60405182907f5cab2ca2af5b6e61b2422e37ecde4001dfe380bc1792803f88668391869b8a1a90600090a25091505b5092915050565b610a6a3383610c16565b610a865760405162461bcd60e51b815260040161051890611c1a565b610a92848484846110ab565b50505050565b6060610aa382610b49565b6000610aad6110de565b90506000815111610acd5760405180602001604052806000815250610af8565b80610ad7846110ed565b604051602001610ae8929190611c92565b6040516020818303038152906040525b9392505050565b600082815260076020526040902060010154610b1a81610e3c565b6105b98383610ecc565b60006001600160e01b03198216637965db0b60e01b14806103e457506103e4826111eb565b6000818152600260205260409020546001600160a01b03166106a55760405162461bcd60e51b8152602060048201526018602482015277115490cdcc8c4e881a5b9d985b1a59081d1bdad95b88125160421b6044820152606401610518565b600081815260046020526040902080546001600160a01b0319166001600160a01b0384169081179091558190610bdd826107cd565b6001600160a01b03167f8c5be1e5ebec7d5bd14f71427d1e84f3dd0314c0f7b2291e5b200ac8c7c3b92560405160405180910390a45050565b600080610c22836107cd565b9050806001600160a01b0316846001600160a01b03161480610c6957506001600160a01b0380821660009081526005602090815260408083209388168352929052205460ff165b80610c8d5750836001600160a01b0316610c828461047c565b6001600160a01b0316145b949350505050565b826001600160a01b0316610ca8826107cd565b6001600160a01b031614610d0c5760405162461bcd60e51b815260206004820152602560248201527f4552433732313a207472616e736665722066726f6d20696e636f72726563742060448201526437bbb732b960d91b6064820152608401610518565b6001600160a01b038216610d6e5760405162461bcd60e51b8152602060048201526024808201527f4552433732313a207472616e7366657220746f20746865207a65726f206164646044820152637265737360e01b6064820152608401610518565b610d7983838361123b565b610d84600082610ba8565b6001600160a01b0383166000908152600360205260408120805460019290610dad908490611cd7565b90915550506001600160a01b0382166000908152600360205260408120805460019290610ddb908490611cee565b909155505060008181526002602052604080822080546001600160a01b0319166001600160a01b0386811691821790925591518493918716917fddf252ad1be2c89b69c2b068fc378daa952ba7f163c4a11628f55a4df523b3ef91a4505050565b6106a58133611246565b610e5082826108c6565b61068e5760008281526007602090815260408083206001600160a01b03851684529091529020805460ff19166001179055610e883390565b6001600160a01b0316816001600160a01b0316837f2f8788117e7eff1d82e926ec794901d17c78024a50270940304540a733656f0d60405160405180910390a45050565b610ed682826108c6565b1561068e5760008281526007602090815260408083206001600160a01b0385168085529252808320805460ff1916905551339285917ff6391f5c32d9c69d2a47ea670b442974b53935d1edc7fd64eb21e047a839171b9190a45050565b610f3b6112aa565b6006805460ff191690557f5db9ee0a495bf2e6ff9c91a7834c1ba4fdd244a5e8aa4e537bd38aeae4b073aa335b6040516001600160a01b03909116815260200160405180910390a1565b610f8d6112f5565b6006805460ff191660011790557f62e78cea01bee320cd4e420270b5ea74000d11b0c9f74754ebdbfc544b05a258610f683390565b816001600160a01b0316836001600160a01b031614156110245760405162461bcd60e51b815260206004820152601960248201527f4552433732313a20617070726f766520746f2063616c6c6572000000000000006044820152606401610518565b6001600160a01b03838116600081815260056020908152604080832094871680845294825291829020805460ff191686151590811790915591519182527f17307eab39ab6107e8899845ad3d59bd9653f200f220920489ca2b5937696c31910160405180910390a3505050565b61068e82826040518060200160405280600081525061133b565b6110b6848484610c95565b6110c28484848461136e565b610a925760405162461bcd60e51b815260040161051890611d06565b6060600880546103f990611bdf565b6060816111115750506040805180820190915260018152600360fc1b602082015290565b8160005b811561113b578061112581611d58565b91506111349050600a83611d73565b9150611115565b60008167ffffffffffffffff81111561115657611156611a0d565b6040519080825280601f01601f191660200182016040528015611180576020820181803683370190505b5090505b8415610c8d57611195600183611cd7565b91506111a2600a86611c7e565b6111ad906030611cee565b60f81b8183815181106111c2576111c2611d87565b60200101906001600160f81b031916908160001a9053506111e4600a86611d73565b9450611184565b60006001600160e01b031982166380ac58cd60e01b148061121c57506001600160e01b03198216635b5e139f60e01b145b806103e457506301ffc9a760e01b6001600160e01b03198316146103e4565b6105b983838361147b565b61125082826108c6565b61068e57611268816001600160a01b031660146114e2565b6112738360206114e2565b604051602001611284929190611d9d565b60408051601f198184030181529082905262461bcd60e51b8252610518916004016118f0565b60065460ff166112f35760405162461bcd60e51b815260206004820152601460248201527314185d5cd8589b194e881b9bdd081c185d5cd95960621b6044820152606401610518565b565b60065460ff16156112f35760405162461bcd60e51b815260206004820152601060248201526f14185d5cd8589b194e881c185d5cd95960821b6044820152606401610518565b611345838361167e565b611352600084848461136e565b6105b95760405162461bcd60e51b815260040161051890611d06565b60006001600160a01b0384163b1561147057604051630a85bd0160e11b81526001600160a01b0385169063150b7a02906113b2903390899088908890600401611e12565b602060405180830381600087803b1580156113cc57600080fd5b505af19250505080156113fc575060408051601f3d908101601f191682019092526113f991810190611e4f565b60015b611456573d80801561142a576040519150601f19603f3d011682016040523d82523d6000602084013e61142f565b606091505b50805161144e5760405162461bcd60e51b815260040161051890611d06565b805181602001fd5b6001600160e01b031916630a85bd0160e11b149050610c8d565b506001949350505050565b60065460ff16156105b95760405162461bcd60e51b815260206004820152602b60248201527f4552433732315061757361626c653a20746f6b656e207472616e73666572207760448201526a1a1a5b19481c185d5cd95960aa1b6064820152608401610518565b606060006114f1836002611e6c565b6114fc906002611cee565b67ffffffffffffffff81111561151457611514611a0d565b6040519080825280601f01601f19166020018201604052801561153e576020820181803683370190505b509050600360fc1b8160008151811061155957611559611d87565b60200101906001600160f81b031916908160001a905350600f60fb1b8160018151811061158857611588611d87565b60200101906001600160f81b031916908160001a90535060006115ac846002611e6c565b6115b7906001611cee565b90505b600181111561162f576f181899199a1a9b1b9c1cb0b131b232b360811b85600f16601081106115eb576115eb611d87565b1a60f81b82828151811061160157611601611d87565b60200101906001600160f81b031916908160001a90535060049490941c9361162881611e8b565b90506115ba565b508315610af85760405162461bcd60e51b815260206004820181905260248201527f537472696e67733a20686578206c656e67746820696e73756666696369656e746044820152606401610518565b6001600160a01b0382166116d45760405162461bcd60e51b815260206004820181905260248201527f4552433732313a206d696e7420746f20746865207a65726f20616464726573736044820152606401610518565b6000818152600260205260409020546001600160a01b0316156117395760405162461bcd60e51b815260206004820152601c60248201527f4552433732313a20746f6b656e20616c7265616479206d696e746564000000006044820152606401610518565b6117456000838361123b565b6001600160a01b038216600090815260036020526040812080546001929061176e908490611cee565b909155505060008181526002602052604080822080546001600160a01b0319166001600160a01b03861690811790915590518392907fddf252ad1be2c89b69c2b068fc378daa952ba7f163c4a11628f55a4df523b3ef908290a45050565b8280546117d890611bdf565b90600052602060002090601f0160209004810192826117fa5760008555611840565b82601f1061181357805160ff1916838001178555611840565b82800160010185558215611840579182015b82811115611840578251825591602001919060010190611825565b5061184c929150611850565b5090565b5b8082111561184c5760008155600101611851565b6001600160e01b0319811681146106a557600080fd5b60006020828403121561188d57600080fd5b8135610af881611865565b60005b838110156118b357818101518382015260200161189b565b83811115610a925750506000910152565b600081518084526118dc816020860160208601611898565b601f01601f19169290920160200192915050565b602081526000610af860208301846118c4565b60006020828403121561191557600080fd5b5035919050565b80356001600160a01b038116811461193357600080fd5b919050565b6000806040838503121561194b57600080fd5b6119548361191c565b946020939093013593505050565b60008060006060848603121561197757600080fd5b6119808461191c565b925061198e6020850161191c565b9150604084013590509250925092565b600080604083850312156119b157600080fd5b823591506119c16020840161191c565b90509250929050565b60008060008060008060c087890312156119e357600080fd5b505084359660208601359650604086013595606081013595506080810135945060a0013592509050565b634e487b7160e01b600052604160045260246000fd5b600067ffffffffffffffff80841115611a3e57611a3e611a0d565b604051601f8501601f19908116603f01168101908282118183101715611a6657611a66611a0d565b81604052809350858152868686011115611a7f57600080fd5b858560208301376000602087830101525050509392505050565b600060208284031215611aab57600080fd5b813567ffffffffffffffff811115611ac257600080fd5b8201601f81018413611ad357600080fd5b610c8d84823560208401611a23565b600060208284031215611af457600080fd5b610af88261191c565b60008060408385031215611b1057600080fd5b611b198361191c565b915060208301358015158114611b2e57600080fd5b809150509250929050565b60008060008060808587031215611b4f57600080fd5b611b588561191c565b9350611b666020860161191c565b925060408501359150606085013567ffffffffffffffff811115611b8957600080fd5b8501601f81018713611b9a57600080fd5b611ba987823560208401611a23565b91505092959194509250565b60008060408385031215611bc857600080fd5b611bd18361191c565b91506119c16020840161191c565b600181811c90821680611bf357607f821691505b60208210811415611c1457634e487b7160e01b600052602260045260246000fd5b50919050565b6020808252602e908201527f4552433732313a2063616c6c6572206973206e6f7420746f6b656e206f776e6560408201526d1c881b9bdc88185c1c1c9bdd995960921b606082015260800190565b634e487b7160e01b600052601260045260246000fd5b600082611c8d57611c8d611c68565b500690565b60008351611ca4818460208801611898565b835190830190611cb8818360208801611898565b01949350505050565b634e487b7160e01b600052601160045260246000fd5b600082821015611ce957611ce9611cc1565b500390565b60008219821115611d0157611d01611cc1565b500190565b60208082526032908201527f4552433732313a207472616e7366657220746f206e6f6e20455243373231526560408201527131b2b4bb32b91034b6b83632b6b2b73a32b960711b606082015260800190565b6000600019821415611d6c57611d6c611cc1565b5060010190565b600082611d8257611d82611c68565b500490565b634e487b7160e01b600052603260045260246000fd5b7f416363657373436f6e74726f6c3a206163636f756e7420000000000000000000815260008351611dd5816017850160208801611898565b7001034b99036b4b9b9b4b733903937b6329607d1b6017918401918201528351611e06816028840160208801611898565b01602801949350505050565b6001600160a01b0385811682528416602082015260408101839052608060608201819052600090611e45908301846118c4565b9695505050505050565b600060208284031215611e6157600080fd5b8151610af881611865565b6000816000190483118215151615611e8657611e86611cc1565b500290565b600081611e9a57611e9a611cc1565b50600019019056fea2646970667358221220a798fc0c5c6a3f73fab6d2cdb9cf11aed2f7395eda3a16940c146620f39a274464736f6c63430008090033",
  "linkReferences": {},
  "deployedLinkReferences": {}
}