{
  "_format": "hh-sol-artifact-1",
  "contractName": "Reborn",
  "sourceName": "contracts/Reborn.sol",
  "abi": [
    {
      "inputs": [
        {
          "internalType": "uint64",
          "name": "subscriptionId",
          "type": "uint64"
        },
        {
          "internalType": "address",
          "name": "champion",
          "type": "address"
        }
      ],
      "stateMutability": "nonpayable",
      "type": "constructor"
    },
    {
      "inputs": [
        {
          "internalType": "address",
          "name": "have",
          "type": "address"
        },
        {
          "internalType": "address",
          "name": "want",
          "type": "address"
        }
      ],
      "name": "OnlyCoordinatorCanFulfill",
      "type": "error"
    },
    {
      "anonymous": false,
      "inputs": [
        {
          "indexed": true,
          "internalType": "bytes32",
          "name": "role",
          "type": "bytes32"
        },
        {
          "indexed": true,
          "internalType": "bytes32",
          "name": "previousAdminRole",
          "type": "bytes32"
        },
        {
          "indexed": true,
          "internalType": "bytes32",
          "name": "newAdminRole",
          "type": "bytes32"
        }
      ],
      "name": "RoleAdminChanged",
      "type": "event"
    },
    {
      "anonymous": false,
      "inputs": [
        {
          "indexed": true,
          "internalType": "bytes32",
          "name": "role",
          "type": "bytes32"
        },
        {
          "indexed": true,
          "internalType": "address",
          "name": "account",
          "type": "address"
        },
        {
          "indexed": true,
          "internalType": "address",
          "name": "sender",
          "type": "address"
        }
      ],
      "name": "RoleGranted",
      "type": "event"
    },
    {
      "anonymous": false,
      "inputs": [
        {
          "indexed": true,
          "internalType": "bytes32",
          "name": "role",
          "type": "bytes32"
        },
        {
          "indexed": true,
          "internalType": "address",
          "name": "account",
          "type": "address"
        },
        {
          "indexed": true,
          "internalType": "address",
          "name": "sender",
          "type": "address"
        }
      ],
      "name": "RoleRevoked",
      "type": "event"
    },
    {
      "inputs": [],
      "name": "DEFAULT_ADMIN_ROLE",
      "outputs": [
        {
          "internalType": "bytes32",
          "name": "",
          "type": "bytes32"
        }
      ],
      "stateMutability": "view",
      "type": "function"
    },
    {
      "inputs": [],
      "name": "_pause",
      "outputs": [
        {
          "internalType": "bool",
          "name": "",
          "type": "bool"
        }
      ],
      "stateMutability": "view",
      "type": "function"
    },
    {
      "inputs": [
        {
          "internalType": "bytes32",
          "name": "role",
          "type": "bytes32"
        }
      ],
      "name": "getRoleAdmin",
      "outputs": [
        {
          "internalType": "bytes32",
          "name": "",
          "type": "bytes32"
        }
      ],
      "stateMutability": "view",
      "type": "function"
    },
    {
      "inputs": [
        {
          "internalType": "bytes32",
          "name": "role",
          "type": "bytes32"
        },
        {
          "internalType": "address",
          "name": "account",
          "type": "address"
        }
      ],
      "name": "grantRole",
      "outputs": [],
      "stateMutability": "nonpayable",
      "type": "function"
    },
    {
      "inputs": [
        {
          "internalType": "bytes32",
          "name": "role",
          "type": "bytes32"
        },
        {
          "internalType": "address",
          "name": "account",
          "type": "address"
        }
      ],
      "name": "hasRole",
      "outputs": [
        {
          "internalType": "bool",
          "name": "",
          "type": "bool"
        }
      ],
      "stateMutability": "view",
      "type": "function"
    },
    {
      "inputs": [
        {
          "internalType": "address",
          "name": "nft",
          "type": "address"
        },
        {
          "internalType": "uint256",
          "name": "tokenId",
          "type": "uint256"
        }
      ],
      "name": "initiateReborn",
      "outputs": [],
      "stateMutability": "nonpayable",
      "type": "function"
    },
    {
      "inputs": [],
      "name": "pause",
      "outputs": [],
      "stateMutability": "nonpayable",
      "type": "function"
    },
    {
      "inputs": [
        {
          "internalType": "uint256",
          "name": "requestId",
          "type": "uint256"
        },
        {
          "internalType": "uint256[]",
          "name": "randomWords",
          "type": "uint256[]"
        }
      ],
      "name": "rawFulfillRandomWords",
      "outputs": [],
      "stateMutability": "nonpayable",
      "type": "function"
    },
    {
      "inputs": [
        {
          "internalType": "bytes32",
          "name": "role",
          "type": "bytes32"
        },
        {
          "internalType": "address",
          "name": "account",
          "type": "address"
        }
      ],
      "name": "renounceRole",
      "outputs": [],
      "stateMutability": "nonpayable",
      "type": "function"
    },
    {
      "inputs": [
        {
          "internalType": "bytes32",
          "name": "role",
          "type": "bytes32"
        },
        {
          "internalType": "address",
          "name": "account",
          "type": "address"
        }
      ],
      "name": "revokeRole",
      "outputs": [],
      "stateMutability": "nonpayable",
      "type": "function"
    },
    {
      "inputs": [
        {
          "internalType": "bytes4",
          "name": "interfaceId",
          "type": "bytes4"
        }
      ],
      "name": "supportsInterface",
      "outputs": [
        {
          "internalType": "bool",
          "name": "",
          "type": "bool"
        }
      ],
      "stateMutability": "view",
      "type": "function"
    },
    {
      "inputs": [],
      "name": "unpause",
      "outputs": [],
      "stateMutability": "nonpayable",
      "type": "function"
    }
  ],
  "bytecode": "0x60a0604052600380546001600160a01b031916736168499c0cffcacd319c818142124b7a15e857ab1790557fd89b2bf150e3b9e13446986e571fb9cab24b13cea0a43ea20a6049a85cc807cc6004556005805466050003000186a06001600160501b031990911617905534801561007557600080fd5b50604051610fff380380610fff833981016040819052610094916101a8565b6003546001600160a01b039081166080819052600180546001600160a81b0319166101009385169390930292909217909155600280546001600160e01b031916909117600160a01b6001600160401b038516021790556100f56000336100fc565b50506101fa565b610106828261010a565b5050565b6000828152602081815260408083206001600160a01b038516845290915290205460ff16610106576000828152602081815260408083206001600160a01b03851684529091529020805460ff191660011790556101643390565b6001600160a01b0316816001600160a01b0316837f2f8788117e7eff1d82e926ec794901d17c78024a50270940304540a733656f0d60405160405180910390a45050565b600080604083850312156101bb57600080fd5b82516001600160401b03811681146101d257600080fd5b60208401519092506001600160a01b03811681146101ef57600080fd5b809150509250929050565b608051610de361021c600039600081816101ed015261022f0152610de36000f3fe608060405234801561001057600080fd5b50600436106100b45760003560e01c80633f4ba83a116100715780633f4ba83a1461015a5780638456cb591461016257806391d148541461016a578063a217fddf1461017d578063bcb58ae914610185578063d547741f1461019857600080fd5b806301ffc9a7146100b95780631fe543e3146100e1578063248a9ca3146100f65780632f2ff15d14610127578063320b2ad91461013a57806336568abe14610147575b600080fd5b6100cc6100c7366004610a91565b6101ab565b60405190151581526020015b60405180910390f35b6100f46100ef366004610ad1565b6101e2565b005b610119610104366004610b9b565b60009081526020819052604090206001015490565b6040519081526020016100d8565b6100f4610135366004610bc9565b61026f565b6001546100cc9060ff1681565b6100f4610155366004610bc9565b610299565b6100f4610313565b6100f461032b565b6100cc610178366004610bc9565b610345565b610119600081565b6100f4610193366004610bf9565b61036e565b6100f46101a6366004610bc9565b6105f8565b60006001600160e01b03198216637965db0b60e01b14806101dc57506301ffc9a760e01b6001600160e01b03198316145b92915050565b336001600160a01b037f000000000000000000000000000000000000000000000000000000000000000016146102615760405163073e64fd60e21b81523360048201526001600160a01b037f00000000000000000000000000000000000000000000000000000000000000001660248201526044015b60405180910390fd5b61026b828261061d565b5050565b60008281526020819052604090206001015461028a81610794565b61029483836107a1565b505050565b6001600160a01b03811633146103095760405162461bcd60e51b815260206004820152602f60248201527f416363657373436f6e74726f6c3a2063616e206f6e6c792072656e6f756e636560448201526e103937b632b9903337b91039b2b63360891b6064820152608401610258565b61026b8282610825565b600061031e81610794565b506001805460ff19169055565b600061033681610794565b506001805460ff191681179055565b6000918252602082815260408084206001600160a01b0393909316845291905290205460ff1690565b60015460ff16156103c15760405162461bcd60e51b815260206004820152601860248201527f5265626f726e206973206e6f742061636365737369626c6500000000000000006044820152606401610258565b6040516331a9108f60e11b81526004810182905233906001600160a01b03841690636352211e9060240160206040518083038186803b15801561040357600080fd5b505afa158015610417573d6000803e3d6000fd5b505050506040513d601f19601f8201168201806040525081019061043b9190610c25565b6001600160a01b0316146104855760405162461bcd60e51b81526020600482015260116024820152702737ba1037bbb732b91037b31027232a1760791b6044820152606401610258565b60015460405163a433af6f60e01b81526001600160a01b038481166004830152602482018490526000926101009004169063a433af6f90604401602060405180830381600087803b1580156104d957600080fd5b505af11580156104ed573d6000803e3d6000fd5b505050506040513d601f19601f820116820180604052508101906105119190610c42565b600254600480546005546040516305d3b1d360e41b815292830191909152600160a01b830467ffffffffffffffff166024830152640100000000810461ffff16604483015263ffffffff808216606484015266010000000000009091041660848201529192506000916001600160a01b0390911690635d3b1d309060a401602060405180830381600087803b1580156105a957600080fd5b505af11580156105bd573d6000803e3d6000fd5b505050506040513d601f19601f820116820180604052508101906105e19190610c42565b600090815260066020526040902091909155505050565b60008281526020819052604090206001015461061381610794565b6102948383610825565b600082815260066020526040902054806106725760405162461bcd60e51b815260206004820152601660248201527510da185b5c1a5bdb88191bd95cdb89dd08195e1a5cdd60521b6044820152606401610258565b60018054906101000a90046001600160a01b03166001600160a01b031663474cadb682846000815181106106a8576106a8610c5b565b6020026020010151856001815181106106c3576106c3610c5b565b6020026020010151866002815181106106de576106de610c5b565b6020026020010151876003815181106106f9576106f9610c5b565b60200260200101518860048151811061071457610714610c5b565b60209081029190910101516040516001600160e01b031960e089901b1681526004810196909652602486019490945260448501929092526064840152608483015260a482015260c401600060405180830381600087803b15801561077757600080fd5b505af115801561078b573d6000803e3d6000fd5b50505050505050565b61079e813361088a565b50565b6107ab8282610345565b61026b576000828152602081815260408083206001600160a01b03851684529091529020805460ff191660011790556107e13390565b6001600160a01b0316816001600160a01b0316837f2f8788117e7eff1d82e926ec794901d17c78024a50270940304540a733656f0d60405160405180910390a45050565b61082f8282610345565b1561026b576000828152602081815260408083206001600160a01b0385168085529252808320805460ff1916905551339285917ff6391f5c32d9c69d2a47ea670b442974b53935d1edc7fd64eb21e047a839171b9190a45050565b6108948282610345565b61026b576108ac816001600160a01b031660146108ee565b6108b78360206108ee565b6040516020016108c8929190610ca1565b60408051601f198184030181529082905262461bcd60e51b825261025891600401610d16565b606060006108fd836002610d5f565b610908906002610d7e565b67ffffffffffffffff81111561092057610920610abb565b6040519080825280601f01601f19166020018201604052801561094a576020820181803683370190505b509050600360fc1b8160008151811061096557610965610c5b565b60200101906001600160f81b031916908160001a905350600f60fb1b8160018151811061099457610994610c5b565b60200101906001600160f81b031916908160001a90535060006109b8846002610d5f565b6109c3906001610d7e565b90505b6001811115610a3b576f181899199a1a9b1b9c1cb0b131b232b360811b85600f16601081106109f7576109f7610c5b565b1a60f81b828281518110610a0d57610a0d610c5b565b60200101906001600160f81b031916908160001a90535060049490941c93610a3481610d96565b90506109c6565b508315610a8a5760405162461bcd60e51b815260206004820181905260248201527f537472696e67733a20686578206c656e67746820696e73756666696369656e746044820152606401610258565b9392505050565b600060208284031215610aa357600080fd5b81356001600160e01b031981168114610a8a57600080fd5b634e487b7160e01b600052604160045260246000fd5b60008060408385031215610ae457600080fd5b8235915060208084013567ffffffffffffffff80821115610b0457600080fd5b818601915086601f830112610b1857600080fd5b813581811115610b2a57610b2a610abb565b8060051b604051601f19603f83011681018181108582111715610b4f57610b4f610abb565b604052918252848201925083810185019189831115610b6d57600080fd5b938501935b82851015610b8b57843584529385019392850192610b72565b8096505050505050509250929050565b600060208284031215610bad57600080fd5b5035919050565b6001600160a01b038116811461079e57600080fd5b60008060408385031215610bdc57600080fd5b823591506020830135610bee81610bb4565b809150509250929050565b60008060408385031215610c0c57600080fd5b8235610c1781610bb4565b946020939093013593505050565b600060208284031215610c3757600080fd5b8151610a8a81610bb4565b600060208284031215610c5457600080fd5b5051919050565b634e487b7160e01b600052603260045260246000fd5b60005b83811015610c8c578181015183820152602001610c74565b83811115610c9b576000848401525b50505050565b7f416363657373436f6e74726f6c3a206163636f756e7420000000000000000000815260008351610cd9816017850160208801610c71565b7001034b99036b4b9b9b4b733903937b6329607d1b6017918401918201528351610d0a816028840160208801610c71565b01602801949350505050565b6020815260008251806020840152610d35816040850160208701610c71565b601f01601f19169190910160400192915050565b634e487b7160e01b600052601160045260246000fd5b6000816000190483118215151615610d7957610d79610d49565b500290565b60008219821115610d9157610d91610d49565b500190565b600081610da557610da5610d49565b50600019019056fea2646970667358221220a726cd423f992d4d3e506e9691c78cb3df2315f7586c17185d68eb8ab9c0426c64736f6c63430008090033",
  "linkReferences": {},
  "deployedLinkReferences": {}
}