{
  "_format": "hh-sol-artifact-1",
  "contractName": "Reborn",
  "sourceName": "contracts/Reborn.sol",
  "abi": [
    {
      "inputs": [
        {
          "internalType": "uint64",
          "name": "subscriptionId",
          "type": "uint64"
        },
        {
          "internalType": "address",
          "name": "champion",
          "type": "address"
        }
      ],
      "stateMutability": "nonpayable",
      "type": "constructor"
    },
    {
      "inputs": [
        {
          "internalType": "address",
          "name": "have",
          "type": "address"
        },
        {
          "internalType": "address",
          "name": "want",
          "type": "address"
        }
      ],
      "name": "OnlyCoordinatorCanFulfill",
      "type": "error"
    },
    {
      "anonymous": false,
      "inputs": [
        {
          "indexed": true,
          "internalType": "bytes32",
          "name": "role",
          "type": "bytes32"
        },
        {
          "indexed": true,
          "internalType": "bytes32",
          "name": "previousAdminRole",
          "type": "bytes32"
        },
        {
          "indexed": true,
          "internalType": "bytes32",
          "name": "newAdminRole",
          "type": "bytes32"
        }
      ],
      "name": "RoleAdminChanged",
      "type": "event"
    },
    {
      "anonymous": false,
      "inputs": [
        {
          "indexed": true,
          "internalType": "bytes32",
          "name": "role",
          "type": "bytes32"
        },
        {
          "indexed": true,
          "internalType": "address",
          "name": "account",
          "type": "address"
        },
        {
          "indexed": true,
          "internalType": "address",
          "name": "sender",
          "type": "address"
        }
      ],
      "name": "RoleGranted",
      "type": "event"
    },
    {
      "anonymous": false,
      "inputs": [
        {
          "indexed": true,
          "internalType": "bytes32",
          "name": "role",
          "type": "bytes32"
        },
        {
          "indexed": true,
          "internalType": "address",
          "name": "account",
          "type": "address"
        },
        {
          "indexed": true,
          "internalType": "address",
          "name": "sender",
          "type": "address"
        }
      ],
      "name": "RoleRevoked",
      "type": "event"
    },
    {
      "inputs": [],
      "name": "DEFAULT_ADMIN_ROLE",
      "outputs": [
        {
          "internalType": "bytes32",
          "name": "",
          "type": "bytes32"
        }
      ],
      "stateMutability": "view",
      "type": "function"
    },
    {
      "inputs": [
        {
          "internalType": "bytes32",
          "name": "role",
          "type": "bytes32"
        }
      ],
      "name": "getRoleAdmin",
      "outputs": [
        {
          "internalType": "bytes32",
          "name": "",
          "type": "bytes32"
        }
      ],
      "stateMutability": "view",
      "type": "function"
    },
    {
      "inputs": [
        {
          "internalType": "bytes32",
          "name": "role",
          "type": "bytes32"
        },
        {
          "internalType": "address",
          "name": "account",
          "type": "address"
        }
      ],
      "name": "grantRole",
      "outputs": [],
      "stateMutability": "nonpayable",
      "type": "function"
    },
    {
      "inputs": [
        {
          "internalType": "bytes32",
          "name": "role",
          "type": "bytes32"
        },
        {
          "internalType": "address",
          "name": "account",
          "type": "address"
        }
      ],
      "name": "hasRole",
      "outputs": [
        {
          "internalType": "bool",
          "name": "",
          "type": "bool"
        }
      ],
      "stateMutability": "view",
      "type": "function"
    },
    {
      "inputs": [
        {
          "internalType": "address",
          "name": "nft",
          "type": "address"
        },
        {
          "internalType": "uint256",
          "name": "tokenId",
          "type": "uint256"
        }
      ],
      "name": "initiateReborn",
      "outputs": [],
      "stateMutability": "nonpayable",
      "type": "function"
    },
    {
      "inputs": [
        {
          "internalType": "uint256",
          "name": "requestId",
          "type": "uint256"
        },
        {
          "internalType": "uint256[]",
          "name": "randomWords",
          "type": "uint256[]"
        }
      ],
      "name": "rawFulfillRandomWords",
      "outputs": [],
      "stateMutability": "nonpayable",
      "type": "function"
    },
    {
      "inputs": [
        {
          "internalType": "bytes32",
          "name": "role",
          "type": "bytes32"
        },
        {
          "internalType": "address",
          "name": "account",
          "type": "address"
        }
      ],
      "name": "renounceRole",
      "outputs": [],
      "stateMutability": "nonpayable",
      "type": "function"
    },
    {
      "inputs": [
        {
          "internalType": "bytes32",
          "name": "role",
          "type": "bytes32"
        },
        {
          "internalType": "address",
          "name": "account",
          "type": "address"
        }
      ],
      "name": "revokeRole",
      "outputs": [],
      "stateMutability": "nonpayable",
      "type": "function"
    },
    {
      "inputs": [
        {
          "internalType": "bytes4",
          "name": "interfaceId",
          "type": "bytes4"
        }
      ],
      "name": "supportsInterface",
      "outputs": [
        {
          "internalType": "bool",
          "name": "",
          "type": "bool"
        }
      ],
      "stateMutability": "view",
      "type": "function"
    }
  ],
  "bytecode": "0x60a0604052600380546001600160a01b031916736168499c0cffcacd319c818142124b7a15e857ab1790557fd89b2bf150e3b9e13446986e571fb9cab24b13cea0a43ea20a6049a85cc807cc6004556005805466050003000186a06001600160501b031990911617905534801561007557600080fd5b50604051610f24380380610f24833981016040819052610094916101a1565b6003546001600160a01b039081166080819052600180546001600160a01b03191692841692909217909155600280546001600160e01b031916909117600160a01b6001600160401b038516021790556100ee6000336100f5565b50506101f3565b6100ff8282610103565b5050565b6000828152602081815260408083206001600160a01b038516845290915290205460ff166100ff576000828152602081815260408083206001600160a01b03851684529091529020805460ff1916600117905561015d3390565b6001600160a01b0316816001600160a01b0316837f2f8788117e7eff1d82e926ec794901d17c78024a50270940304540a733656f0d60405160405180910390a45050565b600080604083850312156101b457600080fd5b82516001600160401b03811681146101cb57600080fd5b60208401519092506001600160a01b03811681146101e857600080fd5b809150509250929050565b608051610d0f610215600039600081816101af01526101f10152610d0f6000f3fe608060405234801561001057600080fd5b50600436106100935760003560e01c806336568abe1161006657806336568abe1461011957806391d148541461012c578063a217fddf1461013f578063bcb58ae914610147578063d547741f1461015a57600080fd5b806301ffc9a7146100985780631fe543e3146100c0578063248a9ca3146100d55780632f2ff15d14610106575b600080fd5b6100ab6100a63660046109bd565b61016d565b60405190151581526020015b60405180910390f35b6100d36100ce3660046109fd565b6101a4565b005b6100f86100e3366004610ac7565b60009081526020819052604090206001015490565b6040519081526020016100b7565b6100d3610114366004610af5565b610231565b6100d3610127366004610af5565b61025b565b6100ab61013a366004610af5565b6102d5565b6100f8600081565b6100d3610155366004610b25565b6102fe565b6100d3610168366004610af5565b610530565b60006001600160e01b03198216637965db0b60e01b148061019e57506301ffc9a760e01b6001600160e01b03198316145b92915050565b336001600160a01b037f000000000000000000000000000000000000000000000000000000000000000016146102235760405163073e64fd60e21b81523360048201526001600160a01b037f00000000000000000000000000000000000000000000000000000000000000001660248201526044015b60405180910390fd5b61022d8282610555565b5050565b60008281526020819052604090206001015461024c816106c0565b61025683836106cd565b505050565b6001600160a01b03811633146102cb5760405162461bcd60e51b815260206004820152602f60248201527f416363657373436f6e74726f6c3a2063616e206f6e6c792072656e6f756e636560448201526e103937b632b9903337b91039b2b63360891b606482015260840161021a565b61022d8282610751565b6000918252602082815260408084206001600160a01b0393909316845291905290205460ff1690565b6040516331a9108f60e11b81526004810182905233906001600160a01b03841690636352211e9060240160206040518083038186803b15801561034057600080fd5b505afa158015610354573d6000803e3d6000fd5b505050506040513d601f19601f820116820180604052508101906103789190610b51565b6001600160a01b0316146103c25760405162461bcd60e51b81526020600482015260116024820152702737ba1037bbb732b91037b31027232a1760791b604482015260640161021a565b60015460405163a433af6f60e01b81526001600160a01b03848116600483015260248201849052600092169063a433af6f90604401602060405180830381600087803b15801561041157600080fd5b505af1158015610425573d6000803e3d6000fd5b505050506040513d601f19601f820116820180604052508101906104499190610b6e565b600254600480546005546040516305d3b1d360e41b815292830191909152600160a01b830467ffffffffffffffff166024830152640100000000810461ffff16604483015263ffffffff808216606484015266010000000000009091041660848201529192506000916001600160a01b0390911690635d3b1d309060a401602060405180830381600087803b1580156104e157600080fd5b505af11580156104f5573d6000803e3d6000fd5b505050506040513d601f19601f820116820180604052508101906105199190610b6e565b600090815260066020526040902091909155505050565b60008281526020819052604090206001015461054b816106c0565b6102568383610751565b600082815260066020526040902054806105aa5760405162461bcd60e51b815260206004820152601660248201527510da185b5c1a5bdb88191bd95cdb89dd08195e1a5cdd60521b604482015260640161021a565b60015482516001600160a01b039091169063474cadb690839085906000906105d4576105d4610b87565b6020026020010151856001815181106105ef576105ef610b87565b60200260200101518660028151811061060a5761060a610b87565b60200260200101518760038151811061062557610625610b87565b60200260200101518860048151811061064057610640610b87565b60209081029190910101516040516001600160e01b031960e089901b1681526004810196909652602486019490945260448501929092526064840152608483015260a482015260c401600060405180830381600087803b1580156106a357600080fd5b505af11580156106b7573d6000803e3d6000fd5b50505050505050565b6106ca81336107b6565b50565b6106d782826102d5565b61022d576000828152602081815260408083206001600160a01b03851684529091529020805460ff1916600117905561070d3390565b6001600160a01b0316816001600160a01b0316837f2f8788117e7eff1d82e926ec794901d17c78024a50270940304540a733656f0d60405160405180910390a45050565b61075b82826102d5565b1561022d576000828152602081815260408083206001600160a01b0385168085529252808320805460ff1916905551339285917ff6391f5c32d9c69d2a47ea670b442974b53935d1edc7fd64eb21e047a839171b9190a45050565b6107c082826102d5565b61022d576107d8816001600160a01b0316601461081a565b6107e383602061081a565b6040516020016107f4929190610bcd565b60408051601f198184030181529082905262461bcd60e51b825261021a91600401610c42565b60606000610829836002610c8b565b610834906002610caa565b67ffffffffffffffff81111561084c5761084c6109e7565b6040519080825280601f01601f191660200182016040528015610876576020820181803683370190505b509050600360fc1b8160008151811061089157610891610b87565b60200101906001600160f81b031916908160001a905350600f60fb1b816001815181106108c0576108c0610b87565b60200101906001600160f81b031916908160001a90535060006108e4846002610c8b565b6108ef906001610caa565b90505b6001811115610967576f181899199a1a9b1b9c1cb0b131b232b360811b85600f166010811061092357610923610b87565b1a60f81b82828151811061093957610939610b87565b60200101906001600160f81b031916908160001a90535060049490941c9361096081610cc2565b90506108f2565b5083156109b65760405162461bcd60e51b815260206004820181905260248201527f537472696e67733a20686578206c656e67746820696e73756666696369656e74604482015260640161021a565b9392505050565b6000602082840312156109cf57600080fd5b81356001600160e01b0319811681146109b657600080fd5b634e487b7160e01b600052604160045260246000fd5b60008060408385031215610a1057600080fd5b8235915060208084013567ffffffffffffffff80821115610a3057600080fd5b818601915086601f830112610a4457600080fd5b813581811115610a5657610a566109e7565b8060051b604051601f19603f83011681018181108582111715610a7b57610a7b6109e7565b604052918252848201925083810185019189831115610a9957600080fd5b938501935b82851015610ab757843584529385019392850192610a9e565b8096505050505050509250929050565b600060208284031215610ad957600080fd5b5035919050565b6001600160a01b03811681146106ca57600080fd5b60008060408385031215610b0857600080fd5b823591506020830135610b1a81610ae0565b809150509250929050565b60008060408385031215610b3857600080fd5b8235610b4381610ae0565b946020939093013593505050565b600060208284031215610b6357600080fd5b81516109b681610ae0565b600060208284031215610b8057600080fd5b5051919050565b634e487b7160e01b600052603260045260246000fd5b60005b83811015610bb8578181015183820152602001610ba0565b83811115610bc7576000848401525b50505050565b7f416363657373436f6e74726f6c3a206163636f756e7420000000000000000000815260008351610c05816017850160208801610b9d565b7001034b99036b4b9b9b4b733903937b6329607d1b6017918401918201528351610c36816028840160208801610b9d565b01602801949350505050565b6020815260008251806020840152610c61816040850160208701610b9d565b601f01601f19169190910160400192915050565b634e487b7160e01b600052601160045260246000fd5b6000816000190483118215151615610ca557610ca5610c75565b500290565b60008219821115610cbd57610cbd610c75565b500190565b600081610cd157610cd1610c75565b50600019019056fea264697066735822122015be449df2bc099a47e346041a281a3ac4aad48b5b8372a5a8f9833391dc23c464736f6c63430008090033",
  "linkReferences": {},
  "deployedLinkReferences": {}
}