{
  "_format": "hh-sol-artifact-1",
  "contractName": "Spell",
  "sourceName": "contracts/Spell.sol",
  "abi": [
    {
      "inputs": [
        {
          "internalType": "string",
          "name": "baseUri",
          "type": "string"
        }
      ],
      "stateMutability": "nonpayable",
      "type": "constructor"
    },
    {
      "anonymous": false,
      "inputs": [
        {
          "indexed": true,
          "internalType": "address",
          "name": "owner",
          "type": "address"
        },
        {
          "indexed": true,
          "internalType": "address",
          "name": "approved",
          "type": "address"
        },
        {
          "indexed": true,
          "internalType": "uint256",
          "name": "tokenId",
          "type": "uint256"
        }
      ],
      "name": "Approval",
      "type": "event"
    },
    {
      "anonymous": false,
      "inputs": [
        {
          "indexed": true,
          "internalType": "address",
          "name": "owner",
          "type": "address"
        },
        {
          "indexed": true,
          "internalType": "address",
          "name": "operator",
          "type": "address"
        },
        {
          "indexed": false,
          "internalType": "bool",
          "name": "approved",
          "type": "bool"
        }
      ],
      "name": "ApprovalForAll",
      "type": "event"
    },
    {
      "anonymous": false,
      "inputs": [
        {
          "indexed": false,
          "internalType": "address",
          "name": "account",
          "type": "address"
        }
      ],
      "name": "Paused",
      "type": "event"
    },
    {
      "anonymous": false,
      "inputs": [
        {
          "indexed": true,
          "internalType": "bytes32",
          "name": "role",
          "type": "bytes32"
        },
        {
          "indexed": true,
          "internalType": "bytes32",
          "name": "previousAdminRole",
          "type": "bytes32"
        },
        {
          "indexed": true,
          "internalType": "bytes32",
          "name": "newAdminRole",
          "type": "bytes32"
        }
      ],
      "name": "RoleAdminChanged",
      "type": "event"
    },
    {
      "anonymous": false,
      "inputs": [
        {
          "indexed": true,
          "internalType": "bytes32",
          "name": "role",
          "type": "bytes32"
        },
        {
          "indexed": true,
          "internalType": "address",
          "name": "account",
          "type": "address"
        },
        {
          "indexed": true,
          "internalType": "address",
          "name": "sender",
          "type": "address"
        }
      ],
      "name": "RoleGranted",
      "type": "event"
    },
    {
      "anonymous": false,
      "inputs": [
        {
          "indexed": true,
          "internalType": "bytes32",
          "name": "role",
          "type": "bytes32"
        },
        {
          "indexed": true,
          "internalType": "address",
          "name": "account",
          "type": "address"
        },
        {
          "indexed": true,
          "internalType": "address",
          "name": "sender",
          "type": "address"
        }
      ],
      "name": "RoleRevoked",
      "type": "event"
    },
    {
      "anonymous": false,
      "inputs": [
        {
          "indexed": true,
          "internalType": "address",
          "name": "from",
          "type": "address"
        },
        {
          "indexed": true,
          "internalType": "address",
          "name": "to",
          "type": "address"
        },
        {
          "indexed": true,
          "internalType": "uint256",
          "name": "tokenId",
          "type": "uint256"
        }
      ],
      "name": "Transfer",
      "type": "event"
    },
    {
      "anonymous": false,
      "inputs": [
        {
          "indexed": false,
          "internalType": "address",
          "name": "account",
          "type": "address"
        }
      ],
      "name": "Unpaused",
      "type": "event"
    },
    {
      "inputs": [],
      "name": "DEFAULT_ADMIN_ROLE",
      "outputs": [
        {
          "internalType": "bytes32",
          "name": "",
          "type": "bytes32"
        }
      ],
      "stateMutability": "view",
      "type": "function"
    },
    {
      "inputs": [],
      "name": "STORE_ROLE",
      "outputs": [
        {
          "internalType": "bytes32",
          "name": "",
          "type": "bytes32"
        }
      ],
      "stateMutability": "view",
      "type": "function"
    },
    {
      "inputs": [
        {
          "internalType": "address",
          "name": "to",
          "type": "address"
        },
        {
          "internalType": "uint256",
          "name": "tokenId",
          "type": "uint256"
        }
      ],
      "name": "approve",
      "outputs": [],
      "stateMutability": "nonpayable",
      "type": "function"
    },
    {
      "inputs": [
        {
          "internalType": "address",
          "name": "owner",
          "type": "address"
        }
      ],
      "name": "balanceOf",
      "outputs": [
        {
          "internalType": "uint256",
          "name": "",
          "type": "uint256"
        }
      ],
      "stateMutability": "view",
      "type": "function"
    },
    {
      "inputs": [
        {
          "internalType": "uint256",
          "name": "tokenId",
          "type": "uint256"
        }
      ],
      "name": "getApproved",
      "outputs": [
        {
          "internalType": "address",
          "name": "",
          "type": "address"
        }
      ],
      "stateMutability": "view",
      "type": "function"
    },
    {
      "inputs": [
        {
          "internalType": "bytes32",
          "name": "role",
          "type": "bytes32"
        }
      ],
      "name": "getRoleAdmin",
      "outputs": [
        {
          "internalType": "bytes32",
          "name": "",
          "type": "bytes32"
        }
      ],
      "stateMutability": "view",
      "type": "function"
    },
    {
      "inputs": [
        {
          "internalType": "bytes32",
          "name": "role",
          "type": "bytes32"
        },
        {
          "internalType": "address",
          "name": "account",
          "type": "address"
        }
      ],
      "name": "grantRole",
      "outputs": [],
      "stateMutability": "nonpayable",
      "type": "function"
    },
    {
      "inputs": [
        {
          "internalType": "bytes32",
          "name": "role",
          "type": "bytes32"
        },
        {
          "internalType": "address",
          "name": "account",
          "type": "address"
        }
      ],
      "name": "hasRole",
      "outputs": [
        {
          "internalType": "bool",
          "name": "",
          "type": "bool"
        }
      ],
      "stateMutability": "view",
      "type": "function"
    },
    {
      "inputs": [
        {
          "internalType": "address",
          "name": "owner",
          "type": "address"
        },
        {
          "internalType": "address",
          "name": "operator",
          "type": "address"
        }
      ],
      "name": "isApprovedForAll",
      "outputs": [
        {
          "internalType": "bool",
          "name": "",
          "type": "bool"
        }
      ],
      "stateMutability": "view",
      "type": "function"
    },
    {
      "inputs": [],
      "name": "name",
      "outputs": [
        {
          "internalType": "string",
          "name": "",
          "type": "string"
        }
      ],
      "stateMutability": "view",
      "type": "function"
    },
    {
      "inputs": [
        {
          "internalType": "uint256",
          "name": "tokenId",
          "type": "uint256"
        }
      ],
      "name": "ownerOf",
      "outputs": [
        {
          "internalType": "address",
          "name": "",
          "type": "address"
        }
      ],
      "stateMutability": "view",
      "type": "function"
    },
    {
      "inputs": [],
      "name": "pause",
      "outputs": [],
      "stateMutability": "nonpayable",
      "type": "function"
    },
    {
      "inputs": [],
      "name": "paused",
      "outputs": [
        {
          "internalType": "bool",
          "name": "",
          "type": "bool"
        }
      ],
      "stateMutability": "view",
      "type": "function"
    },
    {
      "inputs": [
        {
          "internalType": "bytes32",
          "name": "role",
          "type": "bytes32"
        },
        {
          "internalType": "address",
          "name": "account",
          "type": "address"
        }
      ],
      "name": "renounceRole",
      "outputs": [],
      "stateMutability": "nonpayable",
      "type": "function"
    },
    {
      "inputs": [
        {
          "internalType": "bytes32",
          "name": "role",
          "type": "bytes32"
        },
        {
          "internalType": "address",
          "name": "account",
          "type": "address"
        }
      ],
      "name": "revokeRole",
      "outputs": [],
      "stateMutability": "nonpayable",
      "type": "function"
    },
    {
      "inputs": [
        {
          "internalType": "address",
          "name": "from",
          "type": "address"
        },
        {
          "internalType": "address",
          "name": "to",
          "type": "address"
        },
        {
          "internalType": "uint256",
          "name": "tokenId",
          "type": "uint256"
        }
      ],
      "name": "safeTransferFrom",
      "outputs": [],
      "stateMutability": "nonpayable",
      "type": "function"
    },
    {
      "inputs": [
        {
          "internalType": "address",
          "name": "from",
          "type": "address"
        },
        {
          "internalType": "address",
          "name": "to",
          "type": "address"
        },
        {
          "internalType": "uint256",
          "name": "tokenId",
          "type": "uint256"
        },
        {
          "internalType": "bytes",
          "name": "data",
          "type": "bytes"
        }
      ],
      "name": "safeTransferFrom",
      "outputs": [],
      "stateMutability": "nonpayable",
      "type": "function"
    },
    {
      "inputs": [
        {
          "internalType": "address",
          "name": "operator",
          "type": "address"
        },
        {
          "internalType": "bool",
          "name": "approved",
          "type": "bool"
        }
      ],
      "name": "setApprovalForAll",
      "outputs": [],
      "stateMutability": "nonpayable",
      "type": "function"
    },
    {
      "inputs": [
        {
          "internalType": "string",
          "name": "newBaseURI",
          "type": "string"
        }
      ],
      "name": "setBaseURI",
      "outputs": [],
      "stateMutability": "nonpayable",
      "type": "function"
    },
    {
      "inputs": [
        {
          "internalType": "bytes4",
          "name": "interfaceId",
          "type": "bytes4"
        }
      ],
      "name": "supportsInterface",
      "outputs": [
        {
          "internalType": "bool",
          "name": "",
          "type": "bool"
        }
      ],
      "stateMutability": "view",
      "type": "function"
    },
    {
      "inputs": [],
      "name": "symbol",
      "outputs": [
        {
          "internalType": "string",
          "name": "",
          "type": "string"
        }
      ],
      "stateMutability": "view",
      "type": "function"
    },
    {
      "inputs": [
        {
          "internalType": "uint256",
          "name": "tokenId",
          "type": "uint256"
        }
      ],
      "name": "tokenURI",
      "outputs": [
        {
          "internalType": "string",
          "name": "",
          "type": "string"
        }
      ],
      "stateMutability": "view",
      "type": "function"
    },
    {
      "inputs": [
        {
          "internalType": "address",
          "name": "from",
          "type": "address"
        },
        {
          "internalType": "address",
          "name": "to",
          "type": "address"
        },
        {
          "internalType": "uint256",
          "name": "tokenId",
          "type": "uint256"
        }
      ],
      "name": "transferFrom",
      "outputs": [],
      "stateMutability": "nonpayable",
      "type": "function"
    },
    {
      "inputs": [],
      "name": "unpause",
      "outputs": [],
      "stateMutability": "nonpayable",
      "type": "function"
    }
  ],
  "bytecode": "0x60806040523480156200001157600080fd5b5060405162001dc638038062001dc6833981016040819052620000349162000240565b604080518082018252600b81526a1499589bdc9b94dc195b1b60aa1b60208083019182528351808501909452600484526314d4115360e21b908401528151919291620000839160009162000184565b5080516200009990600190602084019062000184565b50506006805460ff1916905550620000b3600033620000d0565b8051620000c890600890602084019062000184565b505062000359565b620000dc8282620000e0565b5050565b60008281526007602090815260408083206001600160a01b038516845290915290205460ff16620000dc5760008281526007602090815260408083206001600160a01b03851684529091529020805460ff19166001179055620001403390565b6001600160a01b0316816001600160a01b0316837f2f8788117e7eff1d82e926ec794901d17c78024a50270940304540a733656f0d60405160405180910390a45050565b82805462000192906200031c565b90600052602060002090601f016020900481019282620001b6576000855562000201565b82601f10620001d157805160ff191683800117855562000201565b8280016001018555821562000201579182015b8281111562000201578251825591602001919060010190620001e4565b506200020f92915062000213565b5090565b5b808211156200020f576000815560010162000214565b634e487b7160e01b600052604160045260246000fd5b600060208083850312156200025457600080fd5b82516001600160401b03808211156200026c57600080fd5b818501915085601f8301126200028157600080fd5b8151818111156200029657620002966200022a565b604051601f8201601f19908116603f01168101908382118183101715620002c157620002c16200022a565b816040528281528886848701011115620002da57600080fd5b600093505b82841015620002fe5784840186015181850187015292850192620002df565b82841115620003105760008684830101525b98975050505050505050565b600181811c908216806200033157607f821691505b602082108114156200035357634e487b7160e01b600052602260045260246000fd5b50919050565b611a5d80620003696000396000f3fe608060405234801561001057600080fd5b50600436106101585760003560e01c80635c975abb116100c3578063a217fddf1161007c578063a217fddf146102ed578063a22cb465146102f5578063b88d4fde14610308578063c87b56dd1461031b578063d547741f1461032e578063e985e9c51461034157600080fd5b80635c975abb146102995780636352211e146102a457806370a08231146102b75780638456cb59146102ca57806391d14854146102d257806395d89b41146102e557600080fd5b8063265d83b911610115578063265d83b91461021e5780632f2ff15d1461024557806336568abe146102585780633f4ba83a1461026b57806342842e0e1461027357806355f804b31461028657600080fd5b806301ffc9a71461015d57806306fdde0314610185578063081812fc1461019a578063095ea7b3146101c557806323b872dd146101da578063248a9ca3146101ed575b600080fd5b61017061016b366004611443565b61037d565b60405190151581526020015b60405180910390f35b61018d61038e565b60405161017c91906114b8565b6101ad6101a83660046114cb565b610420565b6040516001600160a01b03909116815260200161017c565b6101d86101d3366004611500565b610447565b005b6101d86101e836600461152a565b610562565b6102106101fb3660046114cb565b60009081526007602052604090206001015490565b60405190815260200161017c565b6102107f9cf888df9829983a4501c3e5076732bbf523e06c6b31f6ce065f61c2aec2056781565b6101d8610253366004611566565b610593565b6101d8610266366004611566565b6105b8565b6101d8610636565b6101d861028136600461152a565b61064c565b6101d861029436600461161e565b610667565b60065460ff16610170565b6101ad6102b23660046114cb565b610685565b6102106102c5366004611667565b6106e5565b6101d861076b565b6101706102e0366004611566565b61077e565b61018d6107a9565b610210600081565b6101d8610303366004611682565b6107b8565b6101d86103163660046116be565b6107c3565b61018d6103293660046114cb565b6107fb565b6101d861033c366004611566565b610862565b61017061034f36600461173a565b6001600160a01b03918216600090815260056020908152604080832093909416825291909152205460ff1690565b600061038882610887565b92915050565b60606000805461039d90611764565b80601f01602080910402602001604051908101604052809291908181526020018280546103c990611764565b80156104165780601f106103eb57610100808354040283529160200191610416565b820191906000526020600020905b8154815290600101906020018083116103f957829003601f168201915b5050505050905090565b600061042b826108ac565b506000908152600460205260409020546001600160a01b031690565b600061045282610685565b9050806001600160a01b0316836001600160a01b031614156104c55760405162461bcd60e51b815260206004820152602160248201527f4552433732313a20617070726f76616c20746f2063757272656e74206f776e656044820152603960f91b60648201526084015b60405180910390fd5b336001600160a01b03821614806104e157506104e1813361034f565b6105535760405162461bcd60e51b815260206004820152603e60248201527f4552433732313a20617070726f76652063616c6c6572206973206e6f7420746f60448201527f6b656e206f776e6572206e6f7220617070726f76656420666f7220616c6c000060648201526084016104bc565b61055d838361090b565b505050565b61056c3382610979565b6105885760405162461bcd60e51b81526004016104bc9061179f565b61055d8383836109f8565b6000828152600760205260409020600101546105ae81610b9f565b61055d8383610ba9565b6001600160a01b03811633146106285760405162461bcd60e51b815260206004820152602f60248201527f416363657373436f6e74726f6c3a2063616e206f6e6c792072656e6f756e636560448201526e103937b632b9903337b91039b2b63360891b60648201526084016104bc565b6106328282610c2f565b5050565b600061064181610b9f565b610649610c96565b50565b61055d838383604051806020016040528060008152506107c3565b600061067281610b9f565b815161055d906008906020850190611394565b6000818152600260205260408120546001600160a01b0316806103885760405162461bcd60e51b8152602060048201526018602482015277115490cdcc8c4e881a5b9d985b1a59081d1bdad95b88125160421b60448201526064016104bc565b60006001600160a01b03821661074f5760405162461bcd60e51b815260206004820152602960248201527f4552433732313a2061646472657373207a65726f206973206e6f7420612076616044820152683634b21037bbb732b960b91b60648201526084016104bc565b506001600160a01b031660009081526003602052604090205490565b600061077681610b9f565b610649610ce8565b60009182526007602090815260408084206001600160a01b0393909316845291905290205460ff1690565b60606001805461039d90611764565b610632338383610d25565b6107cd3383610979565b6107e95760405162461bcd60e51b81526004016104bc9061179f565b6107f584848484610df4565b50505050565b6060610806826108ac565b6000610810610e27565b90506000815111610830576040518060200160405280600081525061085b565b8061083a84610e36565b60405160200161084b9291906117ed565b6040516020818303038152906040525b9392505050565b60008281526007602052604090206001015461087d81610b9f565b61055d8383610c2f565b60006001600160e01b03198216637965db0b60e01b1480610388575061038882610f34565b6000818152600260205260409020546001600160a01b03166106495760405162461bcd60e51b8152602060048201526018602482015277115490cdcc8c4e881a5b9d985b1a59081d1bdad95b88125160421b60448201526064016104bc565b600081815260046020526040902080546001600160a01b0319166001600160a01b038416908117909155819061094082610685565b6001600160a01b03167f8c5be1e5ebec7d5bd14f71427d1e84f3dd0314c0f7b2291e5b200ac8c7c3b92560405160405180910390a45050565b60008061098583610685565b9050806001600160a01b0316846001600160a01b031614806109cc57506001600160a01b0380821660009081526005602090815260408083209388168352929052205460ff165b806109f05750836001600160a01b03166109e584610420565b6001600160a01b0316145b949350505050565b826001600160a01b0316610a0b82610685565b6001600160a01b031614610a6f5760405162461bcd60e51b815260206004820152602560248201527f4552433732313a207472616e736665722066726f6d20696e636f72726563742060448201526437bbb732b960d91b60648201526084016104bc565b6001600160a01b038216610ad15760405162461bcd60e51b8152602060048201526024808201527f4552433732313a207472616e7366657220746f20746865207a65726f206164646044820152637265737360e01b60648201526084016104bc565b610adc838383610f84565b610ae760008261090b565b6001600160a01b0383166000908152600360205260408120805460019290610b10908490611832565b90915550506001600160a01b0382166000908152600360205260408120805460019290610b3e908490611849565b909155505060008181526002602052604080822080546001600160a01b0319166001600160a01b0386811691821790925591518493918716917fddf252ad1be2c89b69c2b068fc378daa952ba7f163c4a11628f55a4df523b3ef91a4505050565b6106498133610f8f565b610bb3828261077e565b6106325760008281526007602090815260408083206001600160a01b03851684529091529020805460ff19166001179055610beb3390565b6001600160a01b0316816001600160a01b0316837f2f8788117e7eff1d82e926ec794901d17c78024a50270940304540a733656f0d60405160405180910390a45050565b610c39828261077e565b156106325760008281526007602090815260408083206001600160a01b0385168085529252808320805460ff1916905551339285917ff6391f5c32d9c69d2a47ea670b442974b53935d1edc7fd64eb21e047a839171b9190a45050565b610c9e610ff3565b6006805460ff191690557f5db9ee0a495bf2e6ff9c91a7834c1ba4fdd244a5e8aa4e537bd38aeae4b073aa335b6040516001600160a01b03909116815260200160405180910390a1565b610cf061103e565b6006805460ff191660011790557f62e78cea01bee320cd4e420270b5ea74000d11b0c9f74754ebdbfc544b05a258610ccb3390565b816001600160a01b0316836001600160a01b03161415610d875760405162461bcd60e51b815260206004820152601960248201527f4552433732313a20617070726f766520746f2063616c6c65720000000000000060448201526064016104bc565b6001600160a01b03838116600081815260056020908152604080832094871680845294825291829020805460ff191686151590811790915591519182527f17307eab39ab6107e8899845ad3d59bd9653f200f220920489ca2b5937696c31910160405180910390a3505050565b610dff8484846109f8565b610e0b84848484611084565b6107f55760405162461bcd60e51b81526004016104bc90611861565b60606008805461039d90611764565b606081610e5a5750506040805180820190915260018152600360fc1b602082015290565b8160005b8115610e845780610e6e816118b3565b9150610e7d9050600a836118e4565b9150610e5e565b60008167ffffffffffffffff811115610e9f57610e9f611592565b6040519080825280601f01601f191660200182016040528015610ec9576020820181803683370190505b5090505b84156109f057610ede600183611832565b9150610eeb600a866118f8565b610ef6906030611849565b60f81b818381518110610f0b57610f0b61190c565b60200101906001600160f81b031916908160001a905350610f2d600a866118e4565b9450610ecd565b60006001600160e01b031982166380ac58cd60e01b1480610f6557506001600160e01b03198216635b5e139f60e01b145b8061038857506301ffc9a760e01b6001600160e01b0319831614610388565b61055d838383611191565b610f99828261077e565b61063257610fb1816001600160a01b031660146111f8565b610fbc8360206111f8565b604051602001610fcd929190611922565b60408051601f198184030181529082905262461bcd60e51b82526104bc916004016114b8565b60065460ff1661103c5760405162461bcd60e51b815260206004820152601460248201527314185d5cd8589b194e881b9bdd081c185d5cd95960621b60448201526064016104bc565b565b60065460ff161561103c5760405162461bcd60e51b815260206004820152601060248201526f14185d5cd8589b194e881c185d5cd95960821b60448201526064016104bc565b60006001600160a01b0384163b1561118657604051630a85bd0160e11b81526001600160a01b0385169063150b7a02906110c8903390899088908890600401611997565b602060405180830381600087803b1580156110e257600080fd5b505af1925050508015611112575060408051601f3d908101601f1916820190925261110f918101906119d4565b60015b61116c573d808015611140576040519150601f19603f3d011682016040523d82523d6000602084013e611145565b606091505b5080516111645760405162461bcd60e51b81526004016104bc90611861565b805181602001fd5b6001600160e01b031916630a85bd0160e11b1490506109f0565b506001949350505050565b60065460ff161561055d5760405162461bcd60e51b815260206004820152602b60248201527f4552433732315061757361626c653a20746f6b656e207472616e73666572207760448201526a1a1a5b19481c185d5cd95960aa1b60648201526084016104bc565b606060006112078360026119f1565b611212906002611849565b67ffffffffffffffff81111561122a5761122a611592565b6040519080825280601f01601f191660200182016040528015611254576020820181803683370190505b509050600360fc1b8160008151811061126f5761126f61190c565b60200101906001600160f81b031916908160001a905350600f60fb1b8160018151811061129e5761129e61190c565b60200101906001600160f81b031916908160001a90535060006112c28460026119f1565b6112cd906001611849565b90505b6001811115611345576f181899199a1a9b1b9c1cb0b131b232b360811b85600f16601081106113015761130161190c565b1a60f81b8282815181106113175761131761190c565b60200101906001600160f81b031916908160001a90535060049490941c9361133e81611a10565b90506112d0565b50831561085b5760405162461bcd60e51b815260206004820181905260248201527f537472696e67733a20686578206c656e67746820696e73756666696369656e7460448201526064016104bc565b8280546113a090611764565b90600052602060002090601f0160209004810192826113c25760008555611408565b82601f106113db57805160ff1916838001178555611408565b82800160010185558215611408579182015b828111156114085782518255916020019190600101906113ed565b50611414929150611418565b5090565b5b808211156114145760008155600101611419565b6001600160e01b03198116811461064957600080fd5b60006020828403121561145557600080fd5b813561085b8161142d565b60005b8381101561147b578181015183820152602001611463565b838111156107f55750506000910152565b600081518084526114a4816020860160208601611460565b601f01601f19169290920160200192915050565b60208152600061085b602083018461148c565b6000602082840312156114dd57600080fd5b5035919050565b80356001600160a01b03811681146114fb57600080fd5b919050565b6000806040838503121561151357600080fd5b61151c836114e4565b946020939093013593505050565b60008060006060848603121561153f57600080fd5b611548846114e4565b9250611556602085016114e4565b9150604084013590509250925092565b6000806040838503121561157957600080fd5b82359150611589602084016114e4565b90509250929050565b634e487b7160e01b600052604160045260246000fd5b600067ffffffffffffffff808411156115c3576115c3611592565b604051601f8501601f19908116603f011681019082821181831017156115eb576115eb611592565b8160405280935085815286868601111561160457600080fd5b858560208301376000602087830101525050509392505050565b60006020828403121561163057600080fd5b813567ffffffffffffffff81111561164757600080fd5b8201601f8101841361165857600080fd5b6109f0848235602084016115a8565b60006020828403121561167957600080fd5b61085b826114e4565b6000806040838503121561169557600080fd5b61169e836114e4565b9150602083013580151581146116b357600080fd5b809150509250929050565b600080600080608085870312156116d457600080fd5b6116dd856114e4565b93506116eb602086016114e4565b925060408501359150606085013567ffffffffffffffff81111561170e57600080fd5b8501601f8101871361171f57600080fd5b61172e878235602084016115a8565b91505092959194509250565b6000806040838503121561174d57600080fd5b611756836114e4565b9150611589602084016114e4565b600181811c9082168061177857607f821691505b6020821081141561179957634e487b7160e01b600052602260045260246000fd5b50919050565b6020808252602e908201527f4552433732313a2063616c6c6572206973206e6f7420746f6b656e206f776e6560408201526d1c881b9bdc88185c1c1c9bdd995960921b606082015260800190565b600083516117ff818460208801611460565b835190830190611813818360208801611460565b01949350505050565b634e487b7160e01b600052601160045260246000fd5b6000828210156118445761184461181c565b500390565b6000821982111561185c5761185c61181c565b500190565b60208082526032908201527f4552433732313a207472616e7366657220746f206e6f6e20455243373231526560408201527131b2b4bb32b91034b6b83632b6b2b73a32b960711b606082015260800190565b60006000198214156118c7576118c761181c565b5060010190565b634e487b7160e01b600052601260045260246000fd5b6000826118f3576118f36118ce565b500490565b600082611907576119076118ce565b500690565b634e487b7160e01b600052603260045260246000fd5b7f416363657373436f6e74726f6c3a206163636f756e742000000000000000000081526000835161195a816017850160208801611460565b7001034b99036b4b9b9b4b733903937b6329607d1b601791840191820152835161198b816028840160208801611460565b01602801949350505050565b6001600160a01b03858116825284166020820152604081018390526080606082018190526000906119ca9083018461148c565b9695505050505050565b6000602082840312156119e657600080fd5b815161085b8161142d565b6000816000190483118215151615611a0b57611a0b61181c565b500290565b600081611a1f57611a1f61181c565b50600019019056fea264697066735822122032bc88e385ccc14a2a6ef7fdc36c2b69ee6e4b2a55fe16adf0b04bbcc79786cf64736f6c63430008090033",
  "linkReferences": {},
  "deployedLinkReferences": {}
}